:020000040000FA
:020000000029D5
:040002000034003492
:100200008113BA2184216E21732183120313A0016B
:10021000A101A2015D210C299F149F180D291E0820
:100220008600A00014210C2983120313851D0800E9
:100230008519182920088800362108008312031721
:1002400000308D0020308C00831603178C130C15A2
:100250008B138B1B282955308D00AA308D008C14F0
:100260008B1763000C11831203130800831203170A
:1002700000308D00831203132008831203178C00B3
:10028000831603178C130C158B1355308D00AA3071
:100290008D008C148B170C1183120313080083122A
:1002A000031700308D00831603178C130C14831270
:1002B00003170C088800031308008B130030831207
:1002C00003178D00831603178C130C148312031766
:1002D0000C088312031388008B170800831603137E
:1002E00061308F000800831203139F131F179F12A2
:1002F0001F129F111F11831603139F139F121F12AA
:10030000831203131F1408008B178B160B1183160F
:1003100003130C148C14831203138B170B170C107C
:100320008C100800831603138112811101118114AE
:10033000011083120313063081000B110800831291
:100340000313101390161016901190101014CF3044
:100350008F0026308E000C10080083120313253006
:10036000920083160313013092008312031391014C
:100370008C100800831603130930850083120313C1
:100380008501831603178801890108148316031356
:100390000030860083120313860183160313003096
:1003A000870083120313870183160313003088002C
:1003B0008312031388010800000000000000000001
:0E03C000000000000000000000000000080027
:02400E00D420BC
:02401000FF3F70
:00000001FF
