:020000040000FA
:020000000029D5
:040002000034003492
:080008008B13CB00030ECC00AA
:100010008C1829200C1821200B1D0F2815204C0EA0
:100020008300CB0E4B0E8B1709000B1D0F280630DB
:1000300081000B113D18C0243C18DE243F18FC241D
:100040000800CF308F0026308E000C10AF0A9721A9
:10005000080091018C10B00A82244018302008005A
:10006000861EAE21861AA621080082077734143432
:10007000B334B634D434E634E7343434F734F434B7
:100080005F347C34363479343E341E344108820780
:100090007D2A003401340234033404340534063438
:1000A000073408340934103411341234133414343E
:1000B00015341634173419342034213422342334BF
:1000C0009D2A42088207802A003401340234033416
:1000D0000434053406340734083409341034113438
:1000E00012341334143415341634173419342034BC
:1000F000213422342334243425342634273428343C
:1001000029343034313432343334343435343634C1
:10011000373438343934403441344234433444344D
:1001200045344634473448344934503451345234D9
:100130005334543455345634573458345934992A36
:100140003B088207352941294C295C296B297B29E9
:100150008D292D088207AA2AD02AF62A1C2B422B89
:10016000682B8E2BB42BDA2B002C262C4C2C45081C
:10017000820701340234033404340534063407346E
:10018000083409340034A22A4608820700340134B6
:02019000A62A9D
:1002000081131A259824A524B3248A248312031366
:10021000AF01B001B201B101B301B401B501B50A3A
:10022000B601B701B801A401A40AA501A601A7015E
:10023000C101C201C10AC20AC301C401C501C6018C
:10024000C701C801AD01A901AA01AB01AC01A80118
:10025000A101A201A301BB01BD01BC01BF01BE01FF
:10026000BE01C001FA30AB00352906148610061114
:1002700086113D143C103F10102283227224A028C6
:10028000352906108614061186113D103C143F10C6
:1002900010228322A0284129102206148610061558
:1002A00086113D143C103F103822402247224F2235
:1002B00083227224A0284C29061086140611861564
:1002C0003D103C143F1010221822202228223022F8
:1002D0008322A0285C2906108614061586153D1079
:1002E0003C103F1457225F2266226E22E821102222
:1002F0008322A0286B2906148614061586153D1046
:100300003C103F144014102283222818BB0A762286
:10031000861EDF21CB21A0287B293D103C103F10F9
:100320004010A40AA8018612BB01A0288D292F081D
:10033000023C03199C290800A10AAF0121083C3C9A
:100340000319A3290800C20AA1010800A20A220871
:10035000FA3C0319AC29080028140800A30A230852
:100360000A3C0319B4290800A301A40308000930BA
:10037000A400A503A30108000930A400A5030800F8
:100380000530A500A60308000930A600A703080051
:100390000030A70008002708003C0319D0290800F6
:1003A0002608003C0319D52908002508003C03193C
:1003B000DA2908002408003C031986160800A41A4C
:1003C000B729A51AC029A61AC429A71AC429080042
:1003D000A41AB72924080A3C0319EF290800A51A12
:1003E000C029A401A50A2508063C0319F82908001C
:1003F000A61AC429A401A501A60A2608093C0319C6
:10040000022A0800A401A501A601A70A2708093CA1
:1004100003190B2A0800A401A501A601A7010800E1
:1004200083120313061F0800061B142ABB0A0800C8
:1004300083120313051C080005181C2AB50A0800BE
:1004400083120313851C08008518242AAD0A0800AE
:1004500083120313051D080005192C2AAD0308009B
:1004600083120313851D08008519342AB50308007B
:1004700083120313051C080005183C2AC20A080051
:1004800083120313851C08008518442AC10A8312AD
:100490000313051D080005194B2AC1030800831228
:1004A0000313851D08008519532AC203080083120F
:1004B0000313051C080005185B2AA40A0800831210
:1004C0000313851C08008518632AA60A83120313E8
:1004D000051D080005196A2AA603080083120313E4
:1004E000851D08008519722AA403080083120313CE
:1004F000851C080085187A2A28141730C1000800C6
:100500003B30C2000800A9206120C400440EAC00AA
:100510000F302C05B10061200F39B2004620C30016
:10052000430EA9000F302905B40046200F39B3004F
:100530000800C201C10AC20A0800C101B301B50A1C
:10054000C10A0800C101B701C60A0800C101C601FD
:10055000B80108000030C500B720C7000F39B70048
:100560000030C600C420C8000F39B8003608033C6C
:100570000319C62A3508093C0319BF2A0800B5012A
:10058000B60A3608033C0319B62A08003508023CAF
:100590000319CB2A0800B501B601AD0AB50A080057
:1005A0000130C500B720C7000F39B7000030C600C2
:1005B000C420C8000F39B8003608023C0319EC2AE1
:1005C0003508093C0319E52A0800B501B60A3608C2
:1005D000023C0319DC2A08003508093C0319F12AFA
:1005E0000800B501B601AD0AB50A08000230C50021
:1005F000B720C7000F39B7000030C600C420C800BC
:100600000F39B8003608033C0319122B3508093C92
:1006100003190B2B0800B501B60A3608033C031971
:10062000022B08003508023C0319172B0800B501FE
:10063000B601AD0AB50A08000330C500B720C700EF
:100640000F39B7000030C600C420C8000F39B80009
:100650003608033C0319382B3508093C0319312BA4
:100660000800B501B60A3608033C0319282B080018
:100670003508013C03193D2B0800B501B601AD0A50
:10068000B50A08000430C500B720C7000F39B7000D
:100690000030C600C420C8000F39B8003608033C3B
:1006A00003195E2B3508093C0319572B0800B501C7
:1006B000B60A3608033C03194E2B08003508023CE5
:1006C0000319632B0800B501B601AD0AB50A08008D
:1006D0000530C500B720C7000F39B7000030C6008D
:1006E000C420C8000F39B8003608033C0319842B16
:1006F0003508093C03197D2B0800B501B60A3608F8
:10070000033C0319742B08003508013C0319892B9D
:100710000800B501B601AD0AB50A08000630C500EB
:10072000B720C7000F39B7000030C600C420C8008A
:100730000F39B8003608033C0319AA2B3508093CC9
:100740000319A32B0800B501B60A3608033C0319A8
:100750009A2B08003508023C0319AF2B0800B5019D
:10076000B601AD0AB50A08000730C500B720C700BA
:100770000F39B7000030C600C420C8000F39B800D8
:100780003608033C0319D02B3508093C0319C92B43
:100790000800B501B60A3608033C0319C02B08004F
:1007A0003508023C0319D52B0800B501B601AD0A86
:1007B000B50A08000830C500B720C7000F39B700D8
:1007C0000030C600C420C8000F39B8003608033C0A
:1007D0000319F62B3508093C0319EF2B0800B50166
:1007E000B60A3608033C0319E62B08003508023C1C
:1007F0000319FB2B0800B501B601AD0AB50A0800C4
:100800000930C500B720C7000F39B7000130C60056
:10081000C420C8000F39B8003608033C03191C2C4B
:100820003508093C0319152C0800B501B60A36082D
:10083000033C03190C2C08003508023C0319212C39
:100840000800B501B601AD0AB50A08000030C500C0
:10085000B720C7000F39B7000130C600C420C80058
:100860000F39B8003608033C0319422C3508093CFF
:1008700003193B2C0800B501B60A3608033C0319DE
:10088000322C08003508013C0319472C0800B5013B
:10089000B601AD0AB50A08000130C500B720C7008F
:1008A0000F39B7000130C600C420C8000F39B800A6
:1008B0003608033C0319682C3508093C0319612CE0
:1008C0000800B501B60A3608033C0319582C080085
:1008D0003508023C03196D2C0800B501B601B50AB4
:1008E000AD010800081088112E18792C0810881105
:1008F0007C2C081488157C2C2E1C802C2E140800AF
:100900002E10080030080A3C0319872C0800AE0A94
:10091000B00108008B178B160B11831603130C14F0
:100920008C14831203138B170B170C108C100800F8
:100930008316031381128111011181140110831296
:100940000313063081000B110800831203131013E8
:1009500090161016901190101014CF308F00263082
:100960008E000C1008008312031367309200831668
:100970000313F13092008312031391018C100800CD
:10098000081EC82C08128816310835208700080078
:10099000881ED02C881208173308352087000800DD
:1009A000081FD82C08138817340835208700080042
:1009B000881308163208352087000800081EE62C28
:1009C000081288163808352087000800881EEE2C8B
:1009D000881208173508352087000800081FF62CF4
:1009E0000813881736083520870008008813081672
:1009F0003708352087000800081E042D08128816C5
:100A00002508352087000800881E0C2D881208173D
:100A10002608352087000800081F142D08138817A2
:100A20002708352087000800881308162408352079
:100A300087000800831603130F3085008312031309
:100A4000850183160317880189018316031340303B
:100A50008600831203138601831603130030870078
:100A60008312031387018316031300308800831257
:060A7000031388010800D9
:02400E00D420BC
:02401000FF3F70
:00000001FF
