:020000040000FA
:02000000002AD4
:040002000034003492
:080008008B13A600030EA700F4
:100010008C1852200C184C200B1D112817208C1AFC
:100020005520270E8300A60E260E8B1709000B1DE8
:100030001128063081000B11250803398207242876
:100040002E28382842280800081388130712871220
:100050003408722086008817A50A08000813881340
:10006000071287123508722086000817A50A0800B3
:1000700008138813071287123608722086000716A5
:10008000A50A080008138813071287123708722080
:1000900086008716A5010800CF308F0026308E001D
:1000A0000C10080091018C1008002D0803398207FC
:1000B0005D28622867286C28080030301A02B400D6
:1000C000AD0A080030301A02B500AD0A0800303021
:1000D0001A02B600AD0A080030301A02B700AD01AE
:1000E00008000800820777341434B334B634D434AB
:1000F000E634E7343434F734F434F534C734633455
:060100009734E334E13402
:1004000098228113E422BC22C922D722AE229D2247
:10041000802283120313A001A101A201A301A40160
:10042000A601A701A501A901AA01AE01AF01B00172
:10043000B101B401B501B601B701BA01AB01AC011C
:10044000A801AD01232A4A223C225A2252224322E9
:100450006C22232AB800B201B3013330B20AB802C9
:1004600003182D2AB2033807B9000530B30AB902C0
:100470000318352AB303080029082A223208AE00DF
:100480003308AF0008002A082A223208B0003308D7
:10049000B10008009F149F184B2A1E08A9001F15C1
:1004A000072308009F149F18532A1E08AA001F1133
:1004B000072308000C1E5A2A12232E08303E9900EA
:1004C0000C1E602A12232F08303E99000C1E662A4B
:1004D00012232C3099000800831203130C1E6E2A7D
:1004E00012233008303E99000C1E742A1223310862
:1004F000303E99000C1E7A2A12230A309900080017
:100500001812181583160317871183160313193051
:1005100099009A018312031398171816181383165B
:100520000313181398168312031388018C160800FE
:100530008316031361308F000800831203139F1387
:100540001F179F121F129F111F11831603139F1352
:100550009F121F12831203131F1408008B178B1690
:100560000B11831603130C148C14831203138B17B3
:100570000B170C108C1008008316031381128111C5
:1005800001118114011083120313063081000B1135
:100590000800831203131013901610169011901078
:1005A0001014CF308F0026308E000C1008008312FC
:1005B00003134730920083160313FA30920083121C
:1005C000031391018C100800831603130330850078
:1005D0008312031385018316031788018901081408
:1005E00088148316031300308600831203138601D8
:1005F00083160313003087008312031387018316C9
:1006000003130030880083120313880108000000E0
:1006100000000000000000000000000000000000DA
:10062000000008001430AC001823AC0B142B080099
:0A0630006430AB00AB0B1A2B08007E
:02400E00D420BC
:02401000FF3F70
:00000001FF
