:020000040000FA
:020000000029D5
:040002000034003492
:080008008B13A500030EA600F6
:100010008C1823200C181D200B1D0F281520260ED0
:100020008300A50E250E8B1709000B1D0F28063027
:1000300081000B113A2131210800CF308F0026308A
:100040008E000C10080091018C10A10A0800820794
:1000500077341434B334B634D434E634E734343437
:10006000F734F434F534C73463349734E334E1348B
:10020000811377214F215C216A2141211B2120216B
:1002100083120313A001A101A201A301A401A5015E
:10022000A6011229AF219F149F1814291E08A000AF
:100230008600A10112298316031361308F00080084
:10024000831203139F131F179F121F129F111F1159
:10025000831603139F139F121F12831203131F147D
:1002600008000810200EA3000F3023052720870068
:100270008814080088100F302005272087000814F4
:1002800008008B178B160B11831603130C148C1498
:10029000831203138B170B170C108C100800831696
:1002A00003138112811101118114011083120313B0
:1002B000063081000B1108008312031310139016EF
:1002C0001016901190101014CF308F0026308E0031
:1002D0000C100800831203132530920083160313B9
:1002E000013092008312031391018C1008008316D1
:1002F000031301308500831203138501831603174E
:1003000088018901081483160313003086008312C4
:10031000031386018316031300308700831203132F
:1003200087018316031300308800831203138801AA
:1003300008000000000000000000000000000000B5
:10034000000000000000080014302108A10BA629BD
:1003500008001430A200A421A20BAB290800210838
:08036000013C03190800AF295C
:02400E00D420BC
:02401000FF3F70
:00000001FF
