:020000040000FA
:020000000029D5
:040002000034003492
:08000800AA00030EAB000B1D62
:100010000F283C3081000B11A50AA60A860A2B0E78
:100020008300AA0E2A0E09000F3982077734413463
:100030003B346B344D346E347E3443347F341F3460
:0C0040005F347C34363479343E341E3496
:1002000083160313A9010408A9004A2129213621D4
:100210000030A2000B293A214221192122210B2969
:100220000800080005178601A901061C15290513F9
:1002300008008810220EA7000F3027051420870021
:100240000814080008100F302205142087008814B5
:100250000800831603138112811101158114011006
:10026000831203133C3081000B1108008B178B168F
:100270000B11080083120313051C080005183E2902
:10028000A20A080083120313851C0800851846295A
:10029000A20308008316031303308500831203139F
:1002A0008501831603178801890183160313003023
:1002B0008600831203138601831603130030870020
:1002C00083120313870183160313003088008312FF
:0602D00003138801080081
:02400E00D420BC
:02401000FF3F70
:00000001FF
