:020000040000FA
:020000000029D5
:040002000034003492
:08000800AA00030EAB000B1D62
:100010000E283C3081000B11A50AA60A2B0E830086
:10002000AA0E2A0E09000F398207773441343B3477
:100030006B344D346E347E3443347F341F345F343C
:0A0040007C34363479343E341E342B
:1002000083160313522131213E210030A200082918
:1002100042214A212A212121122122080602031902
:100220001A2108292508283C031917210800860AE5
:10023000A50108008516A601261E1C298601851227
:1002400008000810220EA7000F3027051320870092
:100250008814080088100F30220513208700081426
:1002600008008316031381128111011581140110F6
:10027000831203133C3081000B1108008B178B167F
:100280000B11080083120313051C080005184629EA
:10029000A20A080083120313851C080085184E2942
:1002A000A20308008316031303308500831203138F
:1002B0008501831603178801890183160313003013
:1002C0008600831203138601831603130030870010
:1002D00083120313870183160313003088008312EF
:0602E00003138801080071
:02400E00D420BC
:02401000FF3F70
:00000001FF
