:020000040000FA
:02000000002AD4
:040002000034003492
:080008008B13AA00030EAB00EC
:100010008C1821200C181B200B1D0F2815202B0ECF
:100020008300AA0E2A0E8B1709000B1D0F2806301D
:1000300081000B110800CF308F0026308E000C108D
:08004000080091018C1008007A
:10040000502281139C22742281228F22662255223F
:1004100083120313A601A701A801A901A201A30148
:10042000A501122A2D22182235221E220815122A71
:10043000200824222408203E9500080021082422B8
:100440002408203E9B000800A200A4010230A40A58
:10045000A2020318262AA40308009F149F182E2A1C
:100460001E08A0001F15BF2208009F149F18362ADF
:100470001E08A1001F11BF22080083120313971347
:100480001713971217129715171597101710831235
:1004900003139D121D129D151D159D141D1408009A
:1004A0008316031361308F000800831203139F1318
:1004B0001F179F121F129F111F11831603139F13E3
:1004C0009F121F12831203131F1408008B178B1621
:1004D0000B11831603130C148C14831203138B1744
:1004E0000B170C108C100800831603138112811156
:1004F00001118114011083120313063081000B11C6
:100500000800831203131013901610169011901008
:100510001014CF308F0026308E000C10080083128C
:1005200003137F30920083160313BB3092008312B3
:10053000031391018C100800831603130330850008
:100540008312031385018316031788018901081498
:100550008814831603130030860083120313860168
:100560008316031300308700831203138701831659
:100570000313003088008312031388010800000071
:10058000000000000000000000000000000000006B
:04059000000008005F
:02400E00D420BC
:02401000FF3F70
:00000001FF
