:020000040000FA
:020000000328D3
:040002000034003492
:0A0006000D205C2030200A30A2001B
:10001000092835205720462009288316031303306A
:100020008500831203138501831603178801890154
:1000300008148814831603130030860083120313F8
:100040008601831603130030870083120313870190
:1000500083160313003088008312031388010800FD
:100060008316031300309F000800831203135720E8
:100070008312031341309F009F149F183D281E08D0
:10008000A1008312031321089500080083120313B3
:1000900057208312031345309F009F149F184E284A
:1000A0001E08A0008312031320089B000800A20B67
:1000B00057280A30A2000800831203130730920069
:1000C000831603139C3092008316031300308700BD
:1000D0008312031397151715971017108312031324
:0600E0009D151D1508002E
:02400E00D420BC
:02401000FF3F70
:00000001FF
