:020000040000FA
:020000000029D5
:040002000034003492
:080008008B13A900030EAA00EE
:100010008C1823200C181C200B1D0F2815202A0ECD
:100020008300A90E290E8B1709000B1D0F28D9304C
:1000300081000B116D21080085308F00EE308E009D
:100040000C10A20A080091018C10A30A0800820774
:10005000773441343B346B344D346E347E34433426
:100060007F341F345F347C34363479343E341E346C
:100200007C21452152216021372183120313A20151
:10021000A301A101A801A7010D292F211821202147
:1002200012210D2905168512A10105128516080057
:1002300023080A3C03191D210800A10AA301080094
:1002400028080A3C031925210800A70AA801270845
:10025000063C03192C210800A801A7010800220868
:100260000A3C031934210800A80AA20108008B17D0
:100270008B160B11831603130C148C1483120313A7
:100280008B170B170C108C100800831603138112A8
:100290008111011181140114831203138030810034
:1002A0000B110800831203131013901210169015EF
:1002B0009010101485308F00EE308E000C10080066
:1002C000831203136730920083160313F1309200F8
:1002D0008312031391018C1008007021762108000D
:1002E000081027082720870088140800881028088D
:1002F00027208700081408008316031300308500A8
:10030000831203138501831603178801890183165D
:100310000313003086008312031386018316031330
:100320000030870083120313870183160313003004
:1003300088008312031388010800000000000000F9
:1003400000000000000000000000000000000000AD
:0C03500000000000000000000000080099
:02400E00D420BC
:02401000FF3F70
:00000001FF
