:020000040000FA
:020000000328D3
:040002000034003492
:0A0006000D20522020200A30A20035
:10001000092825204D203620092883120313850145
:1000200086018701880189018316031385018509EB
:100030008601870188018316031788018809080053
:100040008316031300309F000800831203134D2012
:100050008312031341309F009F149F182D281E0800
:10006000A1008312031321089500080083120313D3
:100070004D208312031345309F009F149F183E2884
:100080001E08A00083120313200848209B000800CC
:10009000A300A30C7F39203E0800A20B4D280A3094
:1000A000A200080083120313073092008316031383
:1000B0009C309200831603130030870083120313D1
:1000C0009715171597101710831203139D151D15FB
:0200D000080026
:02400E00D420BC
:02401000FF3F70
:00000001FF
