:020000040000FA
:020000000029D5
:040002000034003492
:080008008B13B200030EB300DC
:100010008C1823200C181C200B1D0F281520330EC4
:100020008300B20E320E8B1709000B1D0F2806300D
:1000300081000B1195210800CF308F0026308E00F3
:100040000C10A40A080091018C10A50A0800820770
:1000500077341434B334B634D434E634E734343437
:10006000F734F4345F347C34363479343E341E341F
:100070002708820700340134023403340434053481
:10008000063407340834093410341134123413346C
:1000900014341534163417341934203421342234EE
:0600A000233424343A2948
:100200008113B3216D217A2188215F218312031389
:10021000A401A501AF01AE01B001B101A101A60188
:10022000A701A801A901AA01AB0116293F211B21A1
:100230001629A70A08003820A900290EAB000F30A4
:100240002B05B10038200F39B000290EAB000F305C
:100250002B05B1002F08093C03192F290800AF0115
:10026000AE0A2E08023C031936290800AF01AE0180
:10027000A70A0800A701B001B1013820080024082E
:10028000013C031944290800AF0AA40108008811A1
:10029000851223184E298811851251298815851633
:1002A0005129231C55292314080023100800250870
:1002B0000A3C03195C290800A30AA50108008B1752
:1002C0008B160B11831603130C148C148312031357
:1002D0008B170B170C108C10080083160313811258
:1002E0008111011181140110831203130630810062
:1002F0000B1108008312031310139016101690119F
:1003000090101014CF308F0026308E000C10080093
:10031000831203136730920083160313F1309200A7
:100320008312031391018C100800081E9D290812E6
:1003300088162E08272087000800881EA529881205
:1003400008173008272087000800081FAD29081368
:1003500088173108272087000800881308162F08FF
:1003600027208700080083160313003085008312BE
:10037000031385018316031788018901831603136C
:1003800000308600831203138601831603130030A6
:10039000870083120313870183160313003088003C
:1003A000831203138801831603130030890083121C
:1003B00003138901831603178801890108000000CF
:1003C000000000000000000000000000000000002D
:1003D0000000000000000000000000000000080015
:02400E00D420BC
:02401000FF3F70
:00000001FF
