:020000040000FA
:020000000029D5
:040002000034003492
:080008008B13A600030EA700F4
:100010008C1824200C181E200B1D0F281520270ECD
:100020008300A60E260E8B1709000B1D0F28063025
:1000300081000B1125184D2946210800CF308F0073
:1000400026308E000C10080091018C10A10A0800C7
:10005000820777341434B334B634D434E634E73416
:100060003434F734F434F534C73463349734E33438
:02007000E13479
:1002000081138F21672174218221592133215421A7
:1002100083120313A001A101A201A301A401A6015D
:10022000A701A501A801A901AA01AB01AC011829E8
:100230002A213330AA0AA80203181929AA03280779
:10024000A9000530AB0AA90203182129AB0329072D
:10025000AC0018298C1E2A291A088600A800AA01B9
:10026000AB01AC0108001812181583160317871587
:1002700083160313333099009A01831203139817DE
:1002800018161813831603139812080005132A086A
:100290002820880085172514080085132B0828209E
:1002A00088000517251008008316031361308F009E
:1002B00008008B178B160B11831603130C148C1468
:1002C000831203138B170B170C108C100800831666
:1002D0000313811281110111811401108312031380
:1002E000063081000B1108008312031310139016BF
:1002F0001016901190101014CF308F0026308E0001
:100300000C10080083120313253092008316031388
:10031000013092008312031391018C1008008316A0
:10032000031301308500831203138501831603171D
:10033000880189018316031300308600831203139A
:10034000860183160313003087008312031387018D
:1003500083160313003088008312031388010800FA
:02400E00D420BC
:02401000FF3F70
:00000001FF
