:020000040000FA
:020000000029D5
:040002000034003492
:10020000811347213121362116210615831203134C
:10021000A001A101A201A301A4010E2969219F143B
:100220009F1810291E08A1002C210E29181218153C
:1002300083160317871583160313333099009A0129
:1002400083120313981718128316031318139816A2
:1002500083120313880108000C1E2C292108990021
:1002600008008316031361308F0008008312031304
:100270009F131F179F121F129F111F118316031325
:100280009F139F121F12831203131F14080083165B
:1002900003130130850083120313850183160317AE
:1002A0008801890108148316031300308600831225
:1002B0000313860183160313003087008312031390
:1002C000870183160313003088008312031388010B
:1002D0000800000000000000000000000000000016
:1002E000000000000000000000000000000000000E
:1002F00000000000000000000000000000000000FE
:1003000000000000000000000000000000000000ED
:1003100000000000000000000000000000000000DD
:1003200000000000000000000000000000000000CD
:1003300000000000000000000000000000000000BD
:020340000800B3
:02400E00D420BC
:02401000FF3F70
:00000001FF
